{
  "_format": "hh-sol-artifact-1",
  "contractName": "NFTMarketplace",
  "sourceName": "contracts/NFTMarketplace.sol",
  "abi": [
    {
      "inputs": [],
      "stateMutability": "nonpayable",
      "type": "constructor"
    },
    {
      "inputs": [],
      "name": "NFTMarketplace__ItemPriceIsLessThenZero",
      "type": "error"
    },
    {
      "inputs": [],
      "name": "NFTMarketplace__ItemPriceNotMet",
      "type": "error"
    },
    {
      "anonymous": false,
      "inputs": [
        {
          "indexed": true,
          "internalType": "uint256",
          "name": "itemId",
          "type": "uint256"
        },
        {
          "indexed": true,
          "internalType": "address",
          "name": "nftAddress",
          "type": "address"
        },
        {
          "indexed": true,
          "internalType": "uint256",
          "name": "tokenId",
          "type": "uint256"
        },
        {
          "indexed": false,
          "internalType": "address",
          "name": "seller",
          "type": "address"
        },
        {
          "indexed": false,
          "internalType": "address",
          "name": "owner",
          "type": "address"
        },
        {
          "indexed": false,
          "internalType": "uint256",
          "name": "price",
          "type": "uint256"
        },
        {
          "indexed": false,
          "internalType": "bool",
          "name": "sold",
          "type": "bool"
        }
      ],
      "name": "ItemList",
      "type": "event"
    },
    {
      "inputs": [
        {
          "internalType": "address",
          "name": "_nftAddress",
          "type": "address"
        },
        {
          "internalType": "uint256",
          "name": "_itemId",
          "type": "uint256"
        }
      ],
      "name": "buyItem",
      "outputs": [],
      "stateMutability": "payable",
      "type": "function"
    },
    {
      "inputs": [],
      "name": "getAllListedItems",
      "outputs": [
        {
          "components": [
            {
              "internalType": "uint256",
              "name": "itemId",
              "type": "uint256"
            },
            {
              "internalType": "address",
              "name": "nftContract",
              "type": "address"
            },
            {
              "internalType": "uint256",
              "name": "tokenId",
              "type": "uint256"
            },
            {
              "internalType": "address payable",
              "name": "seller",
              "type": "address"
            },
            {
              "internalType": "address payable",
              "name": "owner",
              "type": "address"
            },
            {
              "internalType": "uint256",
              "name": "price",
              "type": "uint256"
            },
            {
              "internalType": "bool",
              "name": "sold",
              "type": "bool"
            }
          ],
          "internalType": "struct NFTMarketplace.Item[]",
          "name": "",
          "type": "tuple[]"
        }
      ],
      "stateMutability": "view",
      "type": "function"
    },
    {
      "inputs": [],
      "name": "getListingPrice",
      "outputs": [
        {
          "internalType": "uint256",
          "name": "",
          "type": "uint256"
        }
      ],
      "stateMutability": "view",
      "type": "function"
    },
    {
      "inputs": [],
      "name": "getOwnerListedItems",
      "outputs": [
        {
          "components": [
            {
              "internalType": "uint256",
              "name": "itemId",
              "type": "uint256"
            },
            {
              "internalType": "address",
              "name": "nftContract",
              "type": "address"
            },
            {
              "internalType": "uint256",
              "name": "tokenId",
              "type": "uint256"
            },
            {
              "internalType": "address payable",
              "name": "seller",
              "type": "address"
            },
            {
              "internalType": "address payable",
              "name": "owner",
              "type": "address"
            },
            {
              "internalType": "uint256",
              "name": "price",
              "type": "uint256"
            },
            {
              "internalType": "bool",
              "name": "sold",
              "type": "bool"
            }
          ],
          "internalType": "struct NFTMarketplace.Item[]",
          "name": "",
          "type": "tuple[]"
        }
      ],
      "stateMutability": "view",
      "type": "function"
    },
    {
      "inputs": [],
      "name": "getSellerListedItems",
      "outputs": [
        {
          "components": [
            {
              "internalType": "uint256",
              "name": "itemId",
              "type": "uint256"
            },
            {
              "internalType": "address",
              "name": "nftContract",
              "type": "address"
            },
            {
              "internalType": "uint256",
              "name": "tokenId",
              "type": "uint256"
            },
            {
              "internalType": "address payable",
              "name": "seller",
              "type": "address"
            },
            {
              "internalType": "address payable",
              "name": "owner",
              "type": "address"
            },
            {
              "internalType": "uint256",
              "name": "price",
              "type": "uint256"
            },
            {
              "internalType": "bool",
              "name": "sold",
              "type": "bool"
            }
          ],
          "internalType": "struct NFTMarketplace.Item[]",
          "name": "",
          "type": "tuple[]"
        }
      ],
      "stateMutability": "view",
      "type": "function"
    },
    {
      "inputs": [
        {
          "internalType": "address",
          "name": "_nftAddress",
          "type": "address"
        },
        {
          "internalType": "uint256",
          "name": "_tokenId",
          "type": "uint256"
        },
        {
          "internalType": "uint256",
          "name": "_price",
          "type": "uint256"
        }
      ],
      "name": "listItem",
      "outputs": [],
      "stateMutability": "payable",
      "type": "function"
    }
  ],
  "bytecode": "0x60806040526658d15e1762800060045534801561001b57600080fd5b50600160008190555033600360006101000a81548173ffffffffffffffffffffffffffffffffffffffff021916908373ffffffffffffffffffffffffffffffffffffffff16021790555061171f806100746000396000f3fe6080604052600436106100555760003560e01c806312e855851461005a5780633b1b1ad0146100855780634d757a1c146100b057806389bfd38f146100db5780639f37092a146100f7578063f9319c5314610113575b600080fd5b34801561006657600080fd5b5061006f61013e565b60405161007c919061146e565b60405180910390f35b34801561009157600080fd5b5061009a610148565b6040516100a7919061142c565b60405180910390f35b3480156100bc57600080fd5b506100c5610428565b6040516100d2919061142c565b60405180910390f35b6100f560048036038101906100f091906111cd565b61078c565b005b610111600480360381019061010c919061118d565b610aa4565b005b34801561011f57600080fd5b50610128610d5a565b604051610135919061142c565b60405180910390f35b6000600454905090565b6060600061015660016110be565b9050600061016460026110be565b61016e60016110be565b6101789190611529565b90506000808267ffffffffffffffff8111156101975761019661165e565b5b6040519080825280602002602001820160405280156101d057816020015b6101bd6110e2565b8152602001906001900390816101b55790505b50905060005b8481101561041d57600073ffffffffffffffffffffffffffffffffffffffff166005600060018461020791906114d3565b815260200190815260200160002060040160009054906101000a900473ffffffffffffffffffffffffffffffffffffffff1673ffffffffffffffffffffffffffffffffffffffff16141561040a5760006005600060018461026891906114d3565b81526020019081526020016000206000015490506000600560008381526020019081526020016000209050806040518060e0016040529081600082015481526020016001820160009054906101000a900473ffffffffffffffffffffffffffffffffffffffff1673ffffffffffffffffffffffffffffffffffffffff1673ffffffffffffffffffffffffffffffffffffffff168152602001600282015481526020016003820160009054906101000a900473ffffffffffffffffffffffffffffffffffffffff1673ffffffffffffffffffffffffffffffffffffffff1673ffffffffffffffffffffffffffffffffffffffff1681526020016004820160009054906101000a900473ffffffffffffffffffffffffffffffffffffffff1673ffffffffffffffffffffffffffffffffffffffff1673ffffffffffffffffffffffffffffffffffffffff168152602001600582015481526020016006820160009054906101000a900460ff1615151515815250508486815181106103ed576103ec61162f565b5b602002602001018190525060018561040591906114d3565b945050505b8080610415906115b7565b9150506101d6565b508094505050505090565b6060600061043660016110be565b905060008060005b838110156104df573373ffffffffffffffffffffffffffffffffffffffff166005600060018461046e91906114d3565b815260200190815260200160002060040160009054906101000a900473ffffffffffffffffffffffffffffffffffffffff1673ffffffffffffffffffffffffffffffffffffffff1614156104cc576001836104c991906114d3565b92505b80806104d7906115b7565b91505061043e565b5060008267ffffffffffffffff8111156104fc576104fb61165e565b5b60405190808252806020026020018201604052801561053557816020015b6105226110e2565b81526020019060019003908161051a5790505b50905060005b84811015610781573373ffffffffffffffffffffffffffffffffffffffff166005600060018461056b91906114d3565b815260200190815260200160002060040160009054906101000a900473ffffffffffffffffffffffffffffffffffffffff1673ffffffffffffffffffffffffffffffffffffffff16141561076e576000600560006001846105cc91906114d3565b81526020019081526020016000206000015490506000600560008381526020019081526020016000209050806040518060e0016040529081600082015481526020016001820160009054906101000a900473ffffffffffffffffffffffffffffffffffffffff1673ffffffffffffffffffffffffffffffffffffffff1673ffffffffffffffffffffffffffffffffffffffff168152602001600282015481526020016003820160009054906101000a900473ffffffffffffffffffffffffffffffffffffffff1673ffffffffffffffffffffffffffffffffffffffff1673ffffffffffffffffffffffffffffffffffffffff1681526020016004820160009054906101000a900473ffffffffffffffffffffffffffffffffffffffff1673ffffffffffffffffffffffffffffffffffffffff1673ffffffffffffffffffffffffffffffffffffffff168152602001600582015481526020016006820160009054906101000a900460ff1615151515815250508486815181106107515761075061162f565b5b602002602001018190525060018561076991906114d3565b945050505b8080610779906115b7565b91505061053b565b508094505050505090565b600260005414156107d2576040517f08c379a00000000000000000000000000000000000000000000000000000000081526004016107c99061144e565b60405180910390fd5b60026000819055506000811015610815576040517f10b00be800000000000000000000000000000000000000000000000000000000815260040160405180910390fd5b61081f60016110cc565b600061082b60016110be565b90506040518060e001604052808281526020018573ffffffffffffffffffffffffffffffffffffffff1681526020018481526020013373ffffffffffffffffffffffffffffffffffffffff168152602001600073ffffffffffffffffffffffffffffffffffffffff16815260200183815260200160001515815250600560008381526020019081526020016000206000820151816000015560208201518160010160006101000a81548173ffffffffffffffffffffffffffffffffffffffff021916908373ffffffffffffffffffffffffffffffffffffffff1602179055506040820151816002015560608201518160030160006101000a81548173ffffffffffffffffffffffffffffffffffffffff021916908373ffffffffffffffffffffffffffffffffffffffff16021790555060808201518160040160006101000a81548173ffffffffffffffffffffffffffffffffffffffff021916908373ffffffffffffffffffffffffffffffffffffffff16021790555060a0820151816005015560c08201518160060160006101000a81548160ff0219169083151502179055509050508373ffffffffffffffffffffffffffffffffffffffff166323b872dd3330866040518463ffffffff1660e01b8152600401610a0c939291906113b0565b600060405180830381600087803b158015610a2657600080fd5b505af1158015610a3a573d6000803e3d6000fd5b50505050828473ffffffffffffffffffffffffffffffffffffffff16827ff8551f8be25732324fcda411a126b3c851e038b0ff8d097a3951dded3772f43f336000876000604051610a8e94939291906113e7565b60405180910390a4506001600081905550505050565b60026000541415610aea576040517f08c379a0000000000000000000000000000000000000000000000000000000008152600401610ae19061144e565b60405180910390fd5b600260008190555060006005600083815260200190815260200160002060050154905060006005600084815260200190815260200160002060020154905060006005600085815260200190815260200160002060030160009054906101000a900473ffffffffffffffffffffffffffffffffffffffff169050823414610b9c576040517f972a58a100000000000000000000000000000000000000000000000000000000815260040160405180910390fd5b8073ffffffffffffffffffffffffffffffffffffffff166108fc349081150290604051600060405180830381858888f19350505050158015610be2573d6000803e3d6000fd5b508473ffffffffffffffffffffffffffffffffffffffff166323b872dd3033856040518463ffffffff1660e01b8152600401610c20939291906113b0565b600060405180830381600087803b158015610c3a57600080fd5b505af1158015610c4e573d6000803e3d6000fd5b50505050336005600086815260200190815260200160002060040160006101000a81548173ffffffffffffffffffffffffffffffffffffffff021916908373ffffffffffffffffffffffffffffffffffffffff16021790555060016005600086815260200190815260200160002060060160006101000a81548160ff021916908315150217905550610ce060026110cc565b600360009054906101000a900473ffffffffffffffffffffffffffffffffffffffff1673ffffffffffffffffffffffffffffffffffffffff166108fc6004549081150290604051600060405180830381858888f19350505050158015610d4a573d6000803e3d6000fd5b5050505060016000819055505050565b60606000610d6860016110be565b905060008060005b83811015610e11573373ffffffffffffffffffffffffffffffffffffffff1660056000600184610da091906114d3565b815260200190815260200160002060030160009054906101000a900473ffffffffffffffffffffffffffffffffffffffff1673ffffffffffffffffffffffffffffffffffffffff161415610dfe57600183610dfb91906114d3565b92505b8080610e09906115b7565b915050610d70565b5060008267ffffffffffffffff811115610e2e57610e2d61165e565b5b604051908082528060200260200182016040528015610e6757816020015b610e546110e2565b815260200190600190039081610e4c5790505b50905060005b848110156110b3573373ffffffffffffffffffffffffffffffffffffffff1660056000600184610e9d91906114d3565b815260200190815260200160002060030160009054906101000a900473ffffffffffffffffffffffffffffffffffffffff1673ffffffffffffffffffffffffffffffffffffffff1614156110a057600060056000600184610efe91906114d3565b81526020019081526020016000206000015490506000600560008381526020019081526020016000209050806040518060e0016040529081600082015481526020016001820160009054906101000a900473ffffffffffffffffffffffffffffffffffffffff1673ffffffffffffffffffffffffffffffffffffffff1673ffffffffffffffffffffffffffffffffffffffff168152602001600282015481526020016003820160009054906101000a900473ffffffffffffffffffffffffffffffffffffffff1673ffffffffffffffffffffffffffffffffffffffff1673ffffffffffffffffffffffffffffffffffffffff1681526020016004820160009054906101000a900473ffffffffffffffffffffffffffffffffffffffff1673ffffffffffffffffffffffffffffffffffffffff1673ffffffffffffffffffffffffffffffffffffffff168152602001600582015481526020016006820160009054906101000a900460ff1615151515815250508486815181106110835761108261162f565b5b602002602001018190525060018561109b91906114d3565b945050505b80806110ab906115b7565b915050610e6d565b508094505050505090565b600081600001549050919050565b6001816000016000828254019250508190555050565b6040518060e0016040528060008152602001600073ffffffffffffffffffffffffffffffffffffffff16815260200160008152602001600073ffffffffffffffffffffffffffffffffffffffff168152602001600073ffffffffffffffffffffffffffffffffffffffff168152602001600081526020016000151581525090565b600081359050611172816116bb565b92915050565b600081359050611187816116d2565b92915050565b600080604083850312156111a4576111a361168d565b5b60006111b285828601611163565b92505060206111c385828601611178565b9150509250929050565b6000806000606084860312156111e6576111e561168d565b5b60006111f486828701611163565b935050602061120586828701611178565b925050604061121686828701611178565b9150509250925092565b600061122c8383611304565b60e08301905092915050565b6112418161156f565b82525050565b6112508161155d565b82525050565b61125f8161155d565b82525050565b600061127082611499565b61127a81856114b1565b935061128583611489565b8060005b838110156112b657815161129d8882611220565b97506112a8836114a4565b925050600181019050611289565b5085935050505092915050565b6112cc81611581565b82525050565b6112db81611581565b82525050565b60006112ee601f836114c2565b91506112f982611692565b602082019050919050565b60e08201600082015161131a6000850182611392565b50602082015161132d6020850182611247565b5060408201516113406040850182611392565b5060608201516113536060850182611238565b5060808201516113666080850182611238565b5060a082015161137960a0850182611392565b5060c082015161138c60c08501826112c3565b50505050565b61139b816115ad565b82525050565b6113aa816115ad565b82525050565b60006060820190506113c56000830186611256565b6113d26020830185611256565b6113df60408301846113a1565b949350505050565b60006080820190506113fc6000830187611256565b6114096020830186611256565b61141660408301856113a1565b61142360608301846112d2565b95945050505050565b600060208201905081810360008301526114468184611265565b905092915050565b60006020820190508181036000830152611467816112e1565b9050919050565b600060208201905061148360008301846113a1565b92915050565b6000819050602082019050919050565b600081519050919050565b6000602082019050919050565b600082825260208201905092915050565b600082825260208201905092915050565b60006114de826115ad565b91506114e9836115ad565b9250827fffffffffffffffffffffffffffffffffffffffffffffffffffffffffffffffff0382111561151e5761151d611600565b5b828201905092915050565b6000611534826115ad565b915061153f836115ad565b92508282101561155257611551611600565b5b828203905092915050565b60006115688261158d565b9050919050565b600061157a8261158d565b9050919050565b60008115159050919050565b600073ffffffffffffffffffffffffffffffffffffffff82169050919050565b6000819050919050565b60006115c2826115ad565b91507fffffffffffffffffffffffffffffffffffffffffffffffffffffffffffffffff8214156115f5576115f4611600565b5b600182019050919050565b7f4e487b7100000000000000000000000000000000000000000000000000000000600052601160045260246000fd5b7f4e487b7100000000000000000000000000000000000000000000000000000000600052603260045260246000fd5b7f4e487b7100000000000000000000000000000000000000000000000000000000600052604160045260246000fd5b600080fd5b7f5265656e7472616e637947756172643a207265656e7472616e742063616c6c00600082015250565b6116c48161155d565b81146116cf57600080fd5b50565b6116db816115ad565b81146116e657600080fd5b5056fea2646970667358221220e31dc0954756d9d09898ce1037226f3460683ddd2a50476e4d452c1116fddcff64736f6c63430008070033",
  "linkReferences": {},
  "deployedLinkReferences": {}
}