{
  "_format": "hh-sol-artifact-1",
  "contractName": "NFTMarketplace",
  "sourceName": "contracts/NFTMarketplace.sol",
  "abi": [
    {
      "inputs": [],
      "stateMutability": "nonpayable",
      "type": "constructor"
    },
    {
      "inputs": [],
      "name": "NFTMarketplace__ItemPriceIsLessThenZero",
      "type": "error"
    },
    {
      "inputs": [],
      "name": "NFTMarketplace__ItemPriceNotMet",
      "type": "error"
    },
    {
      "inputs": [],
      "name": "NFTMarketplace__YouAreNotOwnerOfThisItem",
      "type": "error"
    },
    {
      "anonymous": false,
      "inputs": [
        {
          "indexed": true,
          "internalType": "address",
          "name": "nftAddress",
          "type": "address"
        },
        {
          "indexed": true,
          "internalType": "uint256",
          "name": "tokenId",
          "type": "uint256"
        },
        {
          "indexed": false,
          "internalType": "address",
          "name": "seller",
          "type": "address"
        },
        {
          "indexed": false,
          "internalType": "address",
          "name": "owner",
          "type": "address"
        },
        {
          "indexed": false,
          "internalType": "uint256",
          "name": "price",
          "type": "uint256"
        },
        {
          "indexed": false,
          "internalType": "bool",
          "name": "sold",
          "type": "bool"
        }
      ],
      "name": "ItemBought",
      "type": "event"
    },
    {
      "anonymous": false,
      "inputs": [
        {
          "indexed": true,
          "internalType": "uint256",
          "name": "itemId",
          "type": "uint256"
        },
        {
          "indexed": true,
          "internalType": "address",
          "name": "nftAddress",
          "type": "address"
        },
        {
          "indexed": true,
          "internalType": "uint256",
          "name": "tokenId",
          "type": "uint256"
        },
        {
          "indexed": false,
          "internalType": "address",
          "name": "seller",
          "type": "address"
        },
        {
          "indexed": false,
          "internalType": "address",
          "name": "owner",
          "type": "address"
        },
        {
          "indexed": false,
          "internalType": "uint256",
          "name": "price",
          "type": "uint256"
        },
        {
          "indexed": false,
          "internalType": "bool",
          "name": "sold",
          "type": "bool"
        }
      ],
      "name": "ItemList",
      "type": "event"
    },
    {
      "inputs": [
        {
          "internalType": "address",
          "name": "_nftAddress",
          "type": "address"
        },
        {
          "internalType": "uint256",
          "name": "_itemId",
          "type": "uint256"
        }
      ],
      "name": "buyItem",
      "outputs": [],
      "stateMutability": "payable",
      "type": "function"
    },
    {
      "inputs": [],
      "name": "getAllListedItems",
      "outputs": [
        {
          "components": [
            {
              "internalType": "uint256",
              "name": "itemId",
              "type": "uint256"
            },
            {
              "internalType": "address",
              "name": "nftContract",
              "type": "address"
            },
            {
              "internalType": "uint256",
              "name": "tokenId",
              "type": "uint256"
            },
            {
              "internalType": "address payable",
              "name": "seller",
              "type": "address"
            },
            {
              "internalType": "address payable",
              "name": "owner",
              "type": "address"
            },
            {
              "internalType": "uint256",
              "name": "price",
              "type": "uint256"
            },
            {
              "internalType": "bool",
              "name": "sold",
              "type": "bool"
            }
          ],
          "internalType": "struct NFTMarketplace.Item[]",
          "name": "",
          "type": "tuple[]"
        }
      ],
      "stateMutability": "view",
      "type": "function"
    },
    {
      "inputs": [],
      "name": "getListingPrice",
      "outputs": [
        {
          "internalType": "uint256",
          "name": "",
          "type": "uint256"
        }
      ],
      "stateMutability": "view",
      "type": "function"
    },
    {
      "inputs": [],
      "name": "getOwnerListedItems",
      "outputs": [
        {
          "components": [
            {
              "internalType": "uint256",
              "name": "itemId",
              "type": "uint256"
            },
            {
              "internalType": "address",
              "name": "nftContract",
              "type": "address"
            },
            {
              "internalType": "uint256",
              "name": "tokenId",
              "type": "uint256"
            },
            {
              "internalType": "address payable",
              "name": "seller",
              "type": "address"
            },
            {
              "internalType": "address payable",
              "name": "owner",
              "type": "address"
            },
            {
              "internalType": "uint256",
              "name": "price",
              "type": "uint256"
            },
            {
              "internalType": "bool",
              "name": "sold",
              "type": "bool"
            }
          ],
          "internalType": "struct NFTMarketplace.Item[]",
          "name": "",
          "type": "tuple[]"
        }
      ],
      "stateMutability": "view",
      "type": "function"
    },
    {
      "inputs": [
        {
          "internalType": "uint256",
          "name": "_itemId",
          "type": "uint256"
        }
      ],
      "name": "getPerticularItem",
      "outputs": [
        {
          "components": [
            {
              "internalType": "uint256",
              "name": "itemId",
              "type": "uint256"
            },
            {
              "internalType": "address",
              "name": "nftContract",
              "type": "address"
            },
            {
              "internalType": "uint256",
              "name": "tokenId",
              "type": "uint256"
            },
            {
              "internalType": "address payable",
              "name": "seller",
              "type": "address"
            },
            {
              "internalType": "address payable",
              "name": "owner",
              "type": "address"
            },
            {
              "internalType": "uint256",
              "name": "price",
              "type": "uint256"
            },
            {
              "internalType": "bool",
              "name": "sold",
              "type": "bool"
            }
          ],
          "internalType": "struct NFTMarketplace.Item",
          "name": "",
          "type": "tuple"
        }
      ],
      "stateMutability": "view",
      "type": "function"
    },
    {
      "inputs": [],
      "name": "getSellerListedItems",
      "outputs": [
        {
          "components": [
            {
              "internalType": "uint256",
              "name": "itemId",
              "type": "uint256"
            },
            {
              "internalType": "address",
              "name": "nftContract",
              "type": "address"
            },
            {
              "internalType": "uint256",
              "name": "tokenId",
              "type": "uint256"
            },
            {
              "internalType": "address payable",
              "name": "seller",
              "type": "address"
            },
            {
              "internalType": "address payable",
              "name": "owner",
              "type": "address"
            },
            {
              "internalType": "uint256",
              "name": "price",
              "type": "uint256"
            },
            {
              "internalType": "bool",
              "name": "sold",
              "type": "bool"
            }
          ],
          "internalType": "struct NFTMarketplace.Item[]",
          "name": "",
          "type": "tuple[]"
        }
      ],
      "stateMutability": "view",
      "type": "function"
    },
    {
      "inputs": [
        {
          "internalType": "address",
          "name": "_nftAddress",
          "type": "address"
        },
        {
          "internalType": "uint256",
          "name": "_tokenId",
          "type": "uint256"
        },
        {
          "internalType": "uint256",
          "name": "_price",
          "type": "uint256"
        }
      ],
      "name": "listItem",
      "outputs": [],
      "stateMutability": "payable",
      "type": "function"
    },
    {
      "inputs": [
        {
          "internalType": "address",
          "name": "_nftAddress",
          "type": "address"
        },
        {
          "internalType": "uint256",
          "name": "_tokenId",
          "type": "uint256"
        },
        {
          "internalType": "uint256",
          "name": "_price",
          "type": "uint256"
        }
      ],
      "name": "resellItem",
      "outputs": [],
      "stateMutability": "payable",
      "type": "function"
    },
    {
      "inputs": [
        {
          "internalType": "uint256",
          "name": "_itemId",
          "type": "uint256"
        },
        {
          "internalType": "uint256",
          "name": "_price",
          "type": "uint256"
        }
      ],
      "name": "updateItemPrice",
      "outputs": [],
      "stateMutability": "nonpayable",
      "type": "function"
    }
  ],
  "bytecode": "0x60806040526658d15e1762800060045534801561001b57600080fd5b50600160008190555033600360006101000a81548173ffffffffffffffffffffffffffffffffffffffff021916908373ffffffffffffffffffffffffffffffffffffffff160217905550611eab806100746000396000f3fe6080604052600436106100865760003560e01c80634d757a1c116100595780634d757a1c1461014757806389bfd38f146101725780638f0af0f91461018e5780639f37092a146101aa578063f9319c53146101c657610086565b806306a5f5a31461008b57806312e85585146100c85780632769b96b146100f35780633b1b1ad01461011c575b600080fd5b34801561009757600080fd5b506100b260048036038101906100ad919061182a565b6101f1565b6040516100bf9190611bb6565b60405180910390f35b3480156100d457600080fd5b506100dd610359565b6040516100ea9190611bd1565b60405180910390f35b3480156100ff57600080fd5b5061011a60048036038101906101159190611857565b610363565b005b34801561012857600080fd5b50610131610457565b60405161013e9190611b54565b60405180910390f35b34801561015357600080fd5b5061015c610737565b6040516101699190611b54565b60405180910390f35b61018c600480360381019061018791906117d7565b610a9b565b005b6101a860048036038101906101a391906117d7565b610db3565b005b6101c460048036038101906101bf9190611797565b610ffb565b005b3480156101d257600080fd5b506101db611308565b6040516101e89190611b54565b60405180910390f35b6101f96116ec565b600560008381526020019081526020016000206040518060e0016040529081600082015481526020016001820160009054906101000a900473ffffffffffffffffffffffffffffffffffffffff1673ffffffffffffffffffffffffffffffffffffffff1673ffffffffffffffffffffffffffffffffffffffff168152602001600282015481526020016003820160009054906101000a900473ffffffffffffffffffffffffffffffffffffffff1673ffffffffffffffffffffffffffffffffffffffff1673ffffffffffffffffffffffffffffffffffffffff1681526020016004820160009054906101000a900473ffffffffffffffffffffffffffffffffffffffff1673ffffffffffffffffffffffffffffffffffffffff1673ffffffffffffffffffffffffffffffffffffffff168152602001600582015481526020016006820160009054906101000a900460ff1615151515815250509050919050565b6000600454905090565b6005600083815260200190815260200160002060030160009054906101000a900473ffffffffffffffffffffffffffffffffffffffff1673ffffffffffffffffffffffffffffffffffffffff163373ffffffffffffffffffffffffffffffffffffffff16146103fe576040517f84bdb6f900000000000000000000000000000000000000000000000000000000815260040160405180910390fd5b60008111610438576040517f10b00be800000000000000000000000000000000000000000000000000000000815260040160405180910390fd5b8060056000848152602001908152602001600020600501819055505050565b60606000610465600161166c565b90506000610473600261166c565b61047d600161166c565b6104879190611c8c565b90506000808267ffffffffffffffff8111156104a6576104a5611dc1565b5b6040519080825280602002602001820160405280156104df57816020015b6104cc6116ec565b8152602001906001900390816104c45790505b50905060005b8481101561072c57600073ffffffffffffffffffffffffffffffffffffffff16600560006001846105169190611c36565b815260200190815260200160002060040160009054906101000a900473ffffffffffffffffffffffffffffffffffffffff1673ffffffffffffffffffffffffffffffffffffffff161415610719576000600560006001846105779190611c36565b81526020019081526020016000206000015490506000600560008381526020019081526020016000209050806040518060e0016040529081600082015481526020016001820160009054906101000a900473ffffffffffffffffffffffffffffffffffffffff1673ffffffffffffffffffffffffffffffffffffffff1673ffffffffffffffffffffffffffffffffffffffff168152602001600282015481526020016003820160009054906101000a900473ffffffffffffffffffffffffffffffffffffffff1673ffffffffffffffffffffffffffffffffffffffff1673ffffffffffffffffffffffffffffffffffffffff1681526020016004820160009054906101000a900473ffffffffffffffffffffffffffffffffffffffff1673ffffffffffffffffffffffffffffffffffffffff1673ffffffffffffffffffffffffffffffffffffffff168152602001600582015481526020016006820160009054906101000a900460ff1615151515815250508486815181106106fc576106fb611d92565b5b60200260200101819052506001856107149190611c36565b945050505b808061072490611d1a565b9150506104e5565b508094505050505090565b60606000610745600161166c565b905060008060005b838110156107ee573373ffffffffffffffffffffffffffffffffffffffff166005600060018461077d9190611c36565b815260200190815260200160002060040160009054906101000a900473ffffffffffffffffffffffffffffffffffffffff1673ffffffffffffffffffffffffffffffffffffffff1614156107db576001836107d89190611c36565b92505b80806107e690611d1a565b91505061074d565b5060008267ffffffffffffffff81111561080b5761080a611dc1565b5b60405190808252806020026020018201604052801561084457816020015b6108316116ec565b8152602001906001900390816108295790505b50905060005b84811015610a90573373ffffffffffffffffffffffffffffffffffffffff166005600060018461087a9190611c36565b815260200190815260200160002060040160009054906101000a900473ffffffffffffffffffffffffffffffffffffffff1673ffffffffffffffffffffffffffffffffffffffff161415610a7d576000600560006001846108db9190611c36565b81526020019081526020016000206000015490506000600560008381526020019081526020016000209050806040518060e0016040529081600082015481526020016001820160009054906101000a900473ffffffffffffffffffffffffffffffffffffffff1673ffffffffffffffffffffffffffffffffffffffff1673ffffffffffffffffffffffffffffffffffffffff168152602001600282015481526020016003820160009054906101000a900473ffffffffffffffffffffffffffffffffffffffff1673ffffffffffffffffffffffffffffffffffffffff1673ffffffffffffffffffffffffffffffffffffffff1681526020016004820160009054906101000a900473ffffffffffffffffffffffffffffffffffffffff1673ffffffffffffffffffffffffffffffffffffffff1673ffffffffffffffffffffffffffffffffffffffff168152602001600582015481526020016006820160009054906101000a900460ff161515151581525050848681518110610a6057610a5f611d92565b5b6020026020010181905250600185610a789190611c36565b945050505b8080610a8890611d1a565b91505061084a565b508094505050505090565b60026000541415610ae1576040517f08c379a0000000000000000000000000000000000000000000000000000000008152600401610ad890611b96565b60405180910390fd5b60026000819055506000811015610b24576040517f10b00be800000000000000000000000000000000000000000000000000000000815260040160405180910390fd5b610b2e600161167a565b6000610b3a600161166c565b90506040518060e001604052808281526020018573ffffffffffffffffffffffffffffffffffffffff1681526020018481526020013373ffffffffffffffffffffffffffffffffffffffff168152602001600073ffffffffffffffffffffffffffffffffffffffff16815260200183815260200160001515815250600560008381526020019081526020016000206000820151816000015560208201518160010160006101000a81548173ffffffffffffffffffffffffffffffffffffffff021916908373ffffffffffffffffffffffffffffffffffffffff1602179055506040820151816002015560608201518160030160006101000a81548173ffffffffffffffffffffffffffffffffffffffff021916908373ffffffffffffffffffffffffffffffffffffffff16021790555060808201518160040160006101000a81548173ffffffffffffffffffffffffffffffffffffffff021916908373ffffffffffffffffffffffffffffffffffffffff16021790555060a0820151816005015560c08201518160060160006101000a81548160ff0219169083151502179055509050508373ffffffffffffffffffffffffffffffffffffffff166323b872dd3330866040518463ffffffff1660e01b8152600401610d1b93929190611ad8565b600060405180830381600087803b158015610d3557600080fd5b505af1158015610d49573d6000803e3d6000fd5b50505050828473ffffffffffffffffffffffffffffffffffffffff16827ff8551f8be25732324fcda411a126b3c851e038b0ff8d097a3951dded3772f43f336000876000604051610d9d9493929190611b0f565b60405180910390a4506001600081905550505050565b3373ffffffffffffffffffffffffffffffffffffffff166005600084815260200190815260200160002060040160009054906101000a900473ffffffffffffffffffffffffffffffffffffffff1673ffffffffffffffffffffffffffffffffffffffff1614610e4e576040517f84bdb6f900000000000000000000000000000000000000000000000000000000815260040160405180910390fd5b6004543414610e89576040517f972a58a100000000000000000000000000000000000000000000000000000000815260040160405180910390fd5b60006005600084815260200190815260200160002060060160006101000a81548160ff021916908315150217905550806005600084815260200190815260200160002060050181905550336005600084815260200190815260200160002060030160006101000a81548173ffffffffffffffffffffffffffffffffffffffff021916908373ffffffffffffffffffffffffffffffffffffffff160217905550306005600084815260200190815260200160002060040160006101000a81548173ffffffffffffffffffffffffffffffffffffffff021916908373ffffffffffffffffffffffffffffffffffffffff160217905550610f876002611690565b8273ffffffffffffffffffffffffffffffffffffffff166323b872dd3330856040518463ffffffff1660e01b8152600401610fc493929190611ad8565b600060405180830381600087803b158015610fde57600080fd5b505af1158015610ff2573d6000803e3d6000fd5b50505050505050565b60026000541415611041576040517f08c379a000000000000000000000000000000000000000000000000000000000815260040161103890611b96565b60405180910390fd5b600260008190555060006005600083815260200190815260200160002060050154905060006005600084815260200190815260200160002060020154905060006005600085815260200190815260200160002060030160009054906101000a900473ffffffffffffffffffffffffffffffffffffffff1690508234146110f3576040517f972a58a100000000000000000000000000000000000000000000000000000000815260040160405180910390fd5b8073ffffffffffffffffffffffffffffffffffffffff166108fc349081150290604051600060405180830381858888f19350505050158015611139573d6000803e3d6000fd5b508473ffffffffffffffffffffffffffffffffffffffff166323b872dd3033856040518463ffffffff1660e01b815260040161117793929190611ad8565b600060405180830381600087803b15801561119157600080fd5b505af11580156111a5573d6000803e3d6000fd5b50505050336005600086815260200190815260200160002060040160006101000a81548173ffffffffffffffffffffffffffffffffffffffff021916908373ffffffffffffffffffffffffffffffffffffffff16021790555060016005600086815260200190815260200160002060060160006101000a81548160ff021916908315150217905550611237600261167a565b818573ffffffffffffffffffffffffffffffffffffffff167f9a9f9faf9d964b2fb1888cdf05202baf5a1b99d45f7afd6a5e062ac544b3c1506000338760016040516112869493929190611b0f565b60405180910390a3600360009054906101000a900473ffffffffffffffffffffffffffffffffffffffff1673ffffffffffffffffffffffffffffffffffffffff166108fc6004549081150290604051600060405180830381858888f193505050501580156112f8573d6000803e3d6000fd5b5050505060016000819055505050565b60606000611316600161166c565b905060008060005b838110156113bf573373ffffffffffffffffffffffffffffffffffffffff166005600060018461134e9190611c36565b815260200190815260200160002060030160009054906101000a900473ffffffffffffffffffffffffffffffffffffffff1673ffffffffffffffffffffffffffffffffffffffff1614156113ac576001836113a99190611c36565b92505b80806113b790611d1a565b91505061131e565b5060008267ffffffffffffffff8111156113dc576113db611dc1565b5b60405190808252806020026020018201604052801561141557816020015b6114026116ec565b8152602001906001900390816113fa5790505b50905060005b84811015611661573373ffffffffffffffffffffffffffffffffffffffff166005600060018461144b9190611c36565b815260200190815260200160002060030160009054906101000a900473ffffffffffffffffffffffffffffffffffffffff1673ffffffffffffffffffffffffffffffffffffffff16141561164e576000600560006001846114ac9190611c36565b81526020019081526020016000206000015490506000600560008381526020019081526020016000209050806040518060e0016040529081600082015481526020016001820160009054906101000a900473ffffffffffffffffffffffffffffffffffffffff1673ffffffffffffffffffffffffffffffffffffffff1673ffffffffffffffffffffffffffffffffffffffff168152602001600282015481526020016003820160009054906101000a900473ffffffffffffffffffffffffffffffffffffffff1673ffffffffffffffffffffffffffffffffffffffff1673ffffffffffffffffffffffffffffffffffffffff1681526020016004820160009054906101000a900473ffffffffffffffffffffffffffffffffffffffff1673ffffffffffffffffffffffffffffffffffffffff1673ffffffffffffffffffffffffffffffffffffffff168152602001600582015481526020016006820160009054906101000a900460ff16151515158152505084868151811061163157611630611d92565b5b60200260200101819052506001856116499190611c36565b945050505b808061165990611d1a565b91505061141b565b508094505050505090565b600081600001549050919050565b6001816000016000828254019250508190555050565b600081600001549050600081116116dc576040517f08c379a00000000000000000000000000000000000000000000000000000000081526004016116d390611b76565b60405180910390fd5b6001810382600001819055505050565b6040518060e0016040528060008152602001600073ffffffffffffffffffffffffffffffffffffffff16815260200160008152602001600073ffffffffffffffffffffffffffffffffffffffff168152602001600073ffffffffffffffffffffffffffffffffffffffff168152602001600081526020016000151581525090565b60008135905061177c81611e47565b92915050565b60008135905061179181611e5e565b92915050565b600080604083850312156117ae576117ad611df0565b5b60006117bc8582860161176d565b92505060206117cd85828601611782565b9150509250929050565b6000806000606084860312156117f0576117ef611df0565b5b60006117fe8682870161176d565b935050602061180f86828701611782565b925050604061182086828701611782565b9150509250925092565b6000602082840312156118405761183f611df0565b5b600061184e84828501611782565b91505092915050565b6000806040838503121561186e5761186d611df0565b5b600061187c85828601611782565b925050602061188d85828601611782565b9150509250929050565b60006118a3838361199e565b60e08301905092915050565b6118b881611cd2565b82525050565b6118c781611cc0565b82525050565b6118d681611cc0565b82525050565b60006118e782611bfc565b6118f18185611c14565b93506118fc83611bec565b8060005b8381101561192d5781516119148882611897565b975061191f83611c07565b925050600181019050611900565b5085935050505092915050565b61194381611ce4565b82525050565b61195281611ce4565b82525050565b6000611965601b83611c25565b915061197082611df5565b602082019050919050565b6000611988601f83611c25565b915061199382611e1e565b602082019050919050565b60e0820160008201516119b46000850182611aba565b5060208201516119c760208501826118be565b5060408201516119da6040850182611aba565b5060608201516119ed60608501826118af565b506080820151611a0060808501826118af565b5060a0820151611a1360a0850182611aba565b5060c0820151611a2660c085018261193a565b50505050565b60e082016000820151611a426000850182611aba565b506020820151611a5560208501826118be565b506040820151611a686040850182611aba565b506060820151611a7b60608501826118af565b506080820151611a8e60808501826118af565b5060a0820151611aa160a0850182611aba565b5060c0820151611ab460c085018261193a565b50505050565b611ac381611d10565b82525050565b611ad281611d10565b82525050565b6000606082019050611aed60008301866118cd565b611afa60208301856118cd565b611b076040830184611ac9565b949350505050565b6000608082019050611b2460008301876118cd565b611b3160208301866118cd565b611b3e6040830185611ac9565b611b4b6060830184611949565b95945050505050565b60006020820190508181036000830152611b6e81846118dc565b905092915050565b60006020820190508181036000830152611b8f81611958565b9050919050565b60006020820190508181036000830152611baf8161197b565b9050919050565b600060e082019050611bcb6000830184611a2c565b92915050565b6000602082019050611be66000830184611ac9565b92915050565b6000819050602082019050919050565b600081519050919050565b6000602082019050919050565b600082825260208201905092915050565b600082825260208201905092915050565b6000611c4182611d10565b9150611c4c83611d10565b9250827fffffffffffffffffffffffffffffffffffffffffffffffffffffffffffffffff03821115611c8157611c80611d63565b5b828201905092915050565b6000611c9782611d10565b9150611ca283611d10565b925082821015611cb557611cb4611d63565b5b828203905092915050565b6000611ccb82611cf0565b9050919050565b6000611cdd82611cf0565b9050919050565b60008115159050919050565b600073ffffffffffffffffffffffffffffffffffffffff82169050919050565b6000819050919050565b6000611d2582611d10565b91507fffffffffffffffffffffffffffffffffffffffffffffffffffffffffffffffff821415611d5857611d57611d63565b5b600182019050919050565b7f4e487b7100000000000000000000000000000000000000000000000000000000600052601160045260246000fd5b7f4e487b7100000000000000000000000000000000000000000000000000000000600052603260045260246000fd5b7f4e487b7100000000000000000000000000000000000000000000000000000000600052604160045260246000fd5b600080fd5b7f436f756e7465723a2064656372656d656e74206f766572666c6f770000000000600082015250565b7f5265656e7472616e637947756172643a207265656e7472616e742063616c6c00600082015250565b611e5081611cc0565b8114611e5b57600080fd5b50565b611e6781611d10565b8114611e7257600080fd5b5056fea264697066735822122029163c464f6d0457815e0de0320295509ce7a5bbefcd7fd057dee533e0ac8c7264736f6c63430008070033",
  "linkReferences": {},
  "deployedLinkReferences": {}
}